{
  "_format": "hh-sol-artifact-1",
  "contractName": "MarketHandler",
  "sourceName": "contracts/MarketHandler.sol",
  "abi": [
    {
      "inputs": [],
      "stateMutability": "nonpayable",
      "type": "constructor"
    },
    {
      "anonymous": false,
      "inputs": [
        {
          "indexed": false,
          "internalType": "address",
          "name": "_buyer",
          "type": "address"
        },
        {
          "indexed": false,
          "internalType": "uint256",
          "name": "paidAmount",
          "type": "uint256"
        },
        {
          "indexed": false,
          "internalType": "address",
          "name": "_writer",
          "type": "address"
        }
      ],
      "name": "RoyalityPaid",
      "type": "event"
    },
    {
      "anonymous": false,
      "inputs": [
        {
          "indexed": false,
          "internalType": "address",
          "name": "_buyer",
          "type": "address"
        },
        {
          "components": [
            {
              "internalType": "address payable",
              "name": "scriptWriter",
              "type": "address"
            },
            {
              "internalType": "address payable",
              "name": "scriptOwner",
              "type": "address"
            },
            {
              "internalType": "string",
              "name": "scriptTitle",
              "type": "string"
            },
            {
              "internalType": "uint256",
              "name": "scriptPrice",
              "type": "uint256"
            },
            {
              "internalType": "uint256",
              "name": "scriptTokenId",
              "type": "uint256"
            },
            {
              "internalType": "uint256",
              "name": "scriptRoyality",
              "type": "uint256"
            }
          ],
          "indexed": false,
          "internalType": "struct Script.ScriptType",
          "name": "script",
          "type": "tuple"
        },
        {
          "indexed": false,
          "internalType": "uint256",
          "name": "paidAmount",
          "type": "uint256"
        },
        {
          "indexed": false,
          "internalType": "address",
          "name": "_writer",
          "type": "address"
        }
      ],
      "name": "SoldScript",
      "type": "event"
    },
    {
      "inputs": [
        {
          "internalType": "uint256",
          "name": "_scriptTokenId",
          "type": "uint256"
        }
      ],
      "name": "buyScript",
      "outputs": [],
      "stateMutability": "payable",
      "type": "function"
    },
    {
      "stateMutability": "payable",
      "type": "receive"
    }
  ],
  "bytecode": "0x6080604052600160045534801561001557600080fd5b5033600560006101000a81548173ffffffffffffffffffffffffffffffffffffffff021916908373ffffffffffffffffffffffffffffffffffffffff16021790555061071c806100666000396000f3fe6080604052600436106100225760003560e01c8063efd35d671461002e57610029565b3661002957005b600080fd5b6100486004803603810190610043919061037e565b61004a565b005b6000600360009054906101000a900473ffffffffffffffffffffffffffffffffffffffff1673ffffffffffffffffffffffffffffffffffffffff1663ce0c3e45836040518263ffffffff1660e01b81526004016100a79190610500565b60006040518083038186803b1580156100bf57600080fd5b505afa1580156100d3573d6000803e3d6000fd5b505050506040513d6000823e3d601f19601f820116820180604052508101906100fc919061033d565b9050600081606001519050600082600001519050600360009054906101000a900473ffffffffffffffffffffffffffffffffffffffff1673ffffffffffffffffffffffffffffffffffffffff1663f0eda55785336040518363ffffffff1660e01b815260040161016d92919061051b565b600060405180830381600087803b15801561018757600080fd5b505af115801561019b573d6000803e3d6000fd5b505050507f68991681c6fb4dba1c64c24a9732f7ea058bf5f3657cedcfe5bbe40f79d6d7f2338484846040516101d494939291906104b4565b60405180910390a150505050565b60006101f56101f084610575565b610544565b90508281526020810184848401111561020d57600080fd5b610218848285610645565b509392505050565b60008151905061022f816106b8565b92915050565b600082601f83011261024657600080fd5b81516102568482602086016101e2565b91505092915050565b600060c0828403121561027157600080fd5b61027b60c0610544565b9050600061028b84828501610220565b600083015250602061029f84828501610220565b602083015250604082015167ffffffffffffffff8111156102bf57600080fd5b6102cb84828501610235565b60408301525060606102df84828501610328565b60608301525060806102f384828501610328565b60808301525060a061030784828501610328565b60a08301525092915050565b600081359050610322816106cf565b92915050565b600081519050610337816106cf565b92915050565b60006020828403121561034f57600080fd5b600082015167ffffffffffffffff81111561036957600080fd5b6103758482850161025f565b91505092915050565b60006020828403121561039057600080fd5b600061039e84828501610313565b91505092915050565b6103b08161060f565b82525050565b6103bf816105d3565b82525050565b6103ce816105c1565b82525050565b60006103df826105a5565b6103e981856105b0565b93506103f9818560208601610645565b610402816106a7565b840191505092915050565b600060c08301600083015161042560008601826103b6565b50602083015161043860208601826103b6565b506040830151848203604086015261045082826103d4565b91505060608301516104656060860182610496565b5060808301516104786080860182610496565b5060a083015161048b60a0860182610496565b508091505092915050565b61049f81610605565b82525050565b6104ae81610605565b82525050565b60006080820190506104c960008301876103c5565b81810360208301526104db818661040d565b90506104ea60408301856104a5565b6104f760608301846103a7565b95945050505050565b600060208201905061051560008301846104a5565b92915050565b600060408201905061053060008301856104a5565b61053d60208301846103c5565b9392505050565b6000604051905081810181811067ffffffffffffffff8211171561056b5761056a610678565b5b8060405250919050565b600067ffffffffffffffff8211156105905761058f610678565b5b601f19601f8301169050602081019050919050565b600081519050919050565b600082825260208201905092915050565b60006105cc826105e5565b9050919050565b60006105de826105e5565b9050919050565b600073ffffffffffffffffffffffffffffffffffffffff82169050919050565b6000819050919050565b600061061a82610621565b9050919050565b600061062c82610633565b9050919050565b600061063e826105e5565b9050919050565b60005b83811015610663578082015181840152602081019050610648565b83811115610672576000848401525b50505050565b7f4e487b7100000000000000000000000000000000000000000000000000000000600052604160045260246000fd5b6000601f19601f8301169050919050565b6106c1816105d3565b81146106cc57600080fd5b50565b6106d881610605565b81146106e357600080fd5b5056fea2646970667358221220a6afdea9f79dc72184b7011a89e53826c9665f26817e2fb6f325825d6e216f2864736f6c63430008000033",
  "linkReferences": {},
  "deployedLinkReferences": {}
}