{
  "_format": "hh-sol-artifact-1",
  "contractName": "Script",
  "sourceName": "contracts/Script.sol",
  "abi": [
    {
      "inputs": [],
      "stateMutability": "nonpayable",
      "type": "constructor"
    },
    {
      "anonymous": false,
      "inputs": [
        {
          "indexed": true,
          "internalType": "address",
          "name": "account",
          "type": "address"
        },
        {
          "indexed": true,
          "internalType": "address",
          "name": "operator",
          "type": "address"
        },
        {
          "indexed": false,
          "internalType": "bool",
          "name": "approved",
          "type": "bool"
        }
      ],
      "name": "ApprovalForAll",
      "type": "event"
    },
    {
      "anonymous": false,
      "inputs": [
        {
          "indexed": false,
          "internalType": "address",
          "name": "_buyer",
          "type": "address"
        },
        {
          "indexed": false,
          "internalType": "address payable",
          "name": "_writer",
          "type": "address"
        },
        {
          "indexed": false,
          "internalType": "uint256",
          "name": "amount",
          "type": "uint256"
        },
        {
          "indexed": false,
          "internalType": "string",
          "name": "script_title",
          "type": "string"
        }
      ],
      "name": "GotPaid",
      "type": "event"
    },
    {
      "anonymous": false,
      "inputs": [
        {
          "indexed": false,
          "internalType": "address",
          "name": "_buyer",
          "type": "address"
        },
        {
          "indexed": false,
          "internalType": "address",
          "name": "_originalOwner",
          "type": "address"
        },
        {
          "indexed": false,
          "internalType": "uint256",
          "name": "_scriptPrice",
          "type": "uint256"
        }
      ],
      "name": "ScriptJustSold",
      "type": "event"
    },
    {
      "anonymous": false,
      "inputs": [
        {
          "components": [
            {
              "internalType": "address payable",
              "name": "scriptWriter",
              "type": "address"
            },
            {
              "internalType": "address payable",
              "name": "scriptOwner",
              "type": "address"
            },
            {
              "internalType": "string",
              "name": "scriptTitle",
              "type": "string"
            },
            {
              "internalType": "uint256",
              "name": "scriptPrice",
              "type": "uint256"
            },
            {
              "internalType": "uint256",
              "name": "scriptTokenId",
              "type": "uint256"
            },
            {
              "internalType": "uint256",
              "name": "scriptRoyality",
              "type": "uint256"
            }
          ],
          "indexed": false,
          "internalType": "struct Script.ScriptType",
          "name": "script",
          "type": "tuple"
        }
      ],
      "name": "SriptTokenCreated",
      "type": "event"
    },
    {
      "anonymous": false,
      "inputs": [
        {
          "indexed": true,
          "internalType": "address",
          "name": "operator",
          "type": "address"
        },
        {
          "indexed": true,
          "internalType": "address",
          "name": "from",
          "type": "address"
        },
        {
          "indexed": true,
          "internalType": "address",
          "name": "to",
          "type": "address"
        },
        {
          "indexed": false,
          "internalType": "uint256[]",
          "name": "ids",
          "type": "uint256[]"
        },
        {
          "indexed": false,
          "internalType": "uint256[]",
          "name": "values",
          "type": "uint256[]"
        }
      ],
      "name": "TransferBatch",
      "type": "event"
    },
    {
      "anonymous": false,
      "inputs": [
        {
          "indexed": true,
          "internalType": "address",
          "name": "operator",
          "type": "address"
        },
        {
          "indexed": true,
          "internalType": "address",
          "name": "from",
          "type": "address"
        },
        {
          "indexed": true,
          "internalType": "address",
          "name": "to",
          "type": "address"
        },
        {
          "indexed": false,
          "internalType": "uint256",
          "name": "id",
          "type": "uint256"
        },
        {
          "indexed": false,
          "internalType": "uint256",
          "name": "value",
          "type": "uint256"
        }
      ],
      "name": "TransferSingle",
      "type": "event"
    },
    {
      "anonymous": false,
      "inputs": [
        {
          "indexed": false,
          "internalType": "string",
          "name": "value",
          "type": "string"
        },
        {
          "indexed": true,
          "internalType": "uint256",
          "name": "id",
          "type": "uint256"
        }
      ],
      "name": "URI",
      "type": "event"
    },
    {
      "stateMutability": "payable",
      "type": "fallback"
    },
    {
      "inputs": [
        {
          "internalType": "uint256",
          "name": "_scriptPrice",
          "type": "uint256"
        },
        {
          "internalType": "uint256",
          "name": "_scriptSellingChoise",
          "type": "uint256"
        },
        {
          "internalType": "string",
          "name": "_scriptTitle",
          "type": "string"
        },
        {
          "internalType": "address payable",
          "name": "_writer",
          "type": "address"
        },
        {
          "internalType": "address payable",
          "name": "_scriptOwner",
          "type": "address"
        },
        {
          "internalType": "uint256",
          "name": "_royality",
          "type": "uint256"
        }
      ],
      "name": "TokenizeScript",
      "outputs": [],
      "stateMutability": "payable",
      "type": "function"
    },
    {
      "inputs": [],
      "name": "_fee",
      "outputs": [
        {
          "internalType": "uint256",
          "name": "",
          "type": "uint256"
        }
      ],
      "stateMutability": "view",
      "type": "function"
    },
    {
      "inputs": [],
      "name": "_feePaid",
      "outputs": [
        {
          "internalType": "bool",
          "name": "",
          "type": "bool"
        }
      ],
      "stateMutability": "view",
      "type": "function"
    },
    {
      "inputs": [
        {
          "internalType": "uint256",
          "name": "",
          "type": "uint256"
        }
      ],
      "name": "allScripts",
      "outputs": [
        {
          "internalType": "address payable",
          "name": "scriptWriter",
          "type": "address"
        },
        {
          "internalType": "address payable",
          "name": "scriptOwner",
          "type": "address"
        },
        {
          "internalType": "string",
          "name": "scriptTitle",
          "type": "string"
        },
        {
          "internalType": "uint256",
          "name": "scriptPrice",
          "type": "uint256"
        },
        {
          "internalType": "uint256",
          "name": "scriptTokenId",
          "type": "uint256"
        },
        {
          "internalType": "uint256",
          "name": "scriptRoyality",
          "type": "uint256"
        }
      ],
      "stateMutability": "view",
      "type": "function"
    },
    {
      "inputs": [
        {
          "internalType": "address",
          "name": "account",
          "type": "address"
        },
        {
          "internalType": "uint256",
          "name": "id",
          "type": "uint256"
        }
      ],
      "name": "balanceOf",
      "outputs": [
        {
          "internalType": "uint256",
          "name": "",
          "type": "uint256"
        }
      ],
      "stateMutability": "view",
      "type": "function"
    },
    {
      "inputs": [
        {
          "internalType": "address[]",
          "name": "accounts",
          "type": "address[]"
        },
        {
          "internalType": "uint256[]",
          "name": "ids",
          "type": "uint256[]"
        }
      ],
      "name": "balanceOfBatch",
      "outputs": [
        {
          "internalType": "uint256[]",
          "name": "",
          "type": "uint256[]"
        }
      ],
      "stateMutability": "view",
      "type": "function"
    },
    {
      "inputs": [],
      "name": "contractOwner",
      "outputs": [
        {
          "internalType": "address",
          "name": "",
          "type": "address"
        }
      ],
      "stateMutability": "view",
      "type": "function"
    },
    {
      "inputs": [
        {
          "internalType": "uint256",
          "name": "_detailViewFee",
          "type": "uint256"
        }
      ],
      "name": "detailViewCharge",
      "outputs": [
        {
          "internalType": "bool",
          "name": "",
          "type": "bool"
        }
      ],
      "stateMutability": "payable",
      "type": "function"
    },
    {
      "inputs": [],
      "name": "getAllScripts",
      "outputs": [
        {
          "components": [
            {
              "internalType": "address payable",
              "name": "scriptWriter",
              "type": "address"
            },
            {
              "internalType": "address payable",
              "name": "scriptOwner",
              "type": "address"
            },
            {
              "internalType": "string",
              "name": "scriptTitle",
              "type": "string"
            },
            {
              "internalType": "uint256",
              "name": "scriptPrice",
              "type": "uint256"
            },
            {
              "internalType": "uint256",
              "name": "scriptTokenId",
              "type": "uint256"
            },
            {
              "internalType": "uint256",
              "name": "scriptRoyality",
              "type": "uint256"
            }
          ],
          "internalType": "struct Script.ScriptType[]",
          "name": "",
          "type": "tuple[]"
        }
      ],
      "stateMutability": "view",
      "type": "function"
    },
    {
      "inputs": [
        {
          "internalType": "uint256",
          "name": "_id",
          "type": "uint256"
        }
      ],
      "name": "getScriptByID",
      "outputs": [
        {
          "components": [
            {
              "internalType": "address payable",
              "name": "scriptWriter",
              "type": "address"
            },
            {
              "internalType": "address payable",
              "name": "scriptOwner",
              "type": "address"
            },
            {
              "internalType": "string",
              "name": "scriptTitle",
              "type": "string"
            },
            {
              "internalType": "uint256",
              "name": "scriptPrice",
              "type": "uint256"
            },
            {
              "internalType": "uint256",
              "name": "scriptTokenId",
              "type": "uint256"
            },
            {
              "internalType": "uint256",
              "name": "scriptRoyality",
              "type": "uint256"
            }
          ],
          "internalType": "struct Script.ScriptType",
          "name": "",
          "type": "tuple"
        }
      ],
      "stateMutability": "view",
      "type": "function"
    },
    {
      "inputs": [
        {
          "internalType": "string",
          "name": "_title",
          "type": "string"
        }
      ],
      "name": "getScriptIDByTitle",
      "outputs": [
        {
          "internalType": "uint256",
          "name": "",
          "type": "uint256"
        }
      ],
      "stateMutability": "view",
      "type": "function"
    },
    {
      "inputs": [
        {
          "internalType": "uint256",
          "name": "_id",
          "type": "uint256"
        }
      ],
      "name": "getScriptTitleById",
      "outputs": [
        {
          "internalType": "string",
          "name": "",
          "type": "string"
        }
      ],
      "stateMutability": "view",
      "type": "function"
    },
    {
      "inputs": [
        {
          "internalType": "address",
          "name": "account",
          "type": "address"
        },
        {
          "internalType": "address",
          "name": "operator",
          "type": "address"
        }
      ],
      "name": "isApprovedForAll",
      "outputs": [
        {
          "internalType": "bool",
          "name": "",
          "type": "bool"
        }
      ],
      "stateMutability": "view",
      "type": "function"
    },
    {
      "inputs": [],
      "name": "payListingFee",
      "outputs": [
        {
          "internalType": "bool",
          "name": "",
          "type": "bool"
        }
      ],
      "stateMutability": "payable",
      "type": "function"
    },
    {
      "inputs": [
        {
          "internalType": "address",
          "name": "",
          "type": "address"
        }
      ],
      "name": "pendingWithdrawals",
      "outputs": [
        {
          "internalType": "uint256",
          "name": "",
          "type": "uint256"
        }
      ],
      "stateMutability": "view",
      "type": "function"
    },
    {
      "inputs": [
        {
          "internalType": "address",
          "name": "from",
          "type": "address"
        },
        {
          "internalType": "address",
          "name": "to",
          "type": "address"
        },
        {
          "internalType": "uint256[]",
          "name": "ids",
          "type": "uint256[]"
        },
        {
          "internalType": "uint256[]",
          "name": "amounts",
          "type": "uint256[]"
        },
        {
          "internalType": "bytes",
          "name": "data",
          "type": "bytes"
        }
      ],
      "name": "safeBatchTransferFrom",
      "outputs": [],
      "stateMutability": "nonpayable",
      "type": "function"
    },
    {
      "inputs": [
        {
          "internalType": "address",
          "name": "from",
          "type": "address"
        },
        {
          "internalType": "address",
          "name": "to",
          "type": "address"
        },
        {
          "internalType": "uint256",
          "name": "id",
          "type": "uint256"
        },
        {
          "internalType": "uint256",
          "name": "amount",
          "type": "uint256"
        },
        {
          "internalType": "bytes",
          "name": "data",
          "type": "bytes"
        }
      ],
      "name": "safeTransferFrom",
      "outputs": [],
      "stateMutability": "nonpayable",
      "type": "function"
    },
    {
      "inputs": [
        {
          "internalType": "uint256",
          "name": "",
          "type": "uint256"
        }
      ],
      "name": "scriptTypesCollection",
      "outputs": [
        {
          "internalType": "address payable",
          "name": "scriptWriter",
          "type": "address"
        },
        {
          "internalType": "address payable",
          "name": "scriptOwner",
          "type": "address"
        },
        {
          "internalType": "string",
          "name": "scriptTitle",
          "type": "string"
        },
        {
          "internalType": "uint256",
          "name": "scriptPrice",
          "type": "uint256"
        },
        {
          "internalType": "uint256",
          "name": "scriptTokenId",
          "type": "uint256"
        },
        {
          "internalType": "uint256",
          "name": "scriptRoyality",
          "type": "uint256"
        }
      ],
      "stateMutability": "view",
      "type": "function"
    },
    {
      "inputs": [
        {
          "internalType": "string",
          "name": "",
          "type": "string"
        }
      ],
      "name": "scriptsCollectionIds",
      "outputs": [
        {
          "internalType": "uint256",
          "name": "",
          "type": "uint256"
        }
      ],
      "stateMutability": "view",
      "type": "function"
    },
    {
      "inputs": [
        {
          "internalType": "uint256",
          "name": "",
          "type": "uint256"
        }
      ],
      "name": "scriptsCollectionTitles",
      "outputs": [
        {
          "internalType": "string",
          "name": "",
          "type": "string"
        }
      ],
      "stateMutability": "view",
      "type": "function"
    },
    {
      "inputs": [
        {
          "internalType": "address payable",
          "name": "_to",
          "type": "address"
        }
      ],
      "name": "sendMoney",
      "outputs": [
        {
          "internalType": "bool",
          "name": "",
          "type": "bool"
        }
      ],
      "stateMutability": "payable",
      "type": "function"
    },
    {
      "inputs": [
        {
          "internalType": "address",
          "name": "operator",
          "type": "address"
        },
        {
          "internalType": "bool",
          "name": "approved",
          "type": "bool"
        }
      ],
      "name": "setApprovalForAll",
      "outputs": [],
      "stateMutability": "nonpayable",
      "type": "function"
    },
    {
      "inputs": [
        {
          "internalType": "bytes4",
          "name": "interfaceId",
          "type": "bytes4"
        }
      ],
      "name": "supportsInterface",
      "outputs": [
        {
          "internalType": "bool",
          "name": "",
          "type": "bool"
        }
      ],
      "stateMutability": "view",
      "type": "function"
    },
    {
      "inputs": [
        {
          "internalType": "uint256",
          "name": "_tokenId",
          "type": "uint256"
        },
        {
          "internalType": "address",
          "name": "_buyer",
          "type": "address"
        }
      ],
      "name": "transferScriptOwnership",
      "outputs": [],
      "stateMutability": "nonpayable",
      "type": "function"
    },
    {
      "inputs": [
        {
          "internalType": "uint256",
          "name": "",
          "type": "uint256"
        }
      ],
      "name": "uri",
      "outputs": [
        {
          "internalType": "string",
          "name": "",
          "type": "string"
        }
      ],
      "stateMutability": "view",
      "type": "function"
    },
    {
      "inputs": [],
      "name": "withdraw",
      "outputs": [],
      "stateMutability": "nonpayable",
      "type": "function"
    },
    {
      "inputs": [
        {
          "internalType": "address payable",
          "name": "_to",
          "type": "address"
        },
        {
          "internalType": "uint256",
          "name": "amount",
          "type": "uint256"
        }
      ],
      "name": "withdrawMoneyTo",
      "outputs": [
        {
          "internalType": "bool",
          "name": "",
          "type": "bool"
        }
      ],
      "stateMutability": "nonpayable",
      "type": "function"
    },
    {
      "stateMutability": "payable",
      "type": "receive"
    }
  ],
  "bytecode": "0x60806040526103e8600b556000600c60006101000a81548160ff021916908315150217905550600060115560016012556040518060400160405280600c81526020017f486579207468657265203b290000000000000000000000000000000000000000815250601490805190602001906200007c92919062000150565b503480156200008a57600080fd5b5060405180608001604052806045815260200162004cdb60459139620000b6816200013460201b60201c565b5033601360006101000a81548173ffffffffffffffffffffffffffffffffffffffff021916908373ffffffffffffffffffffffffffffffffffffffff1602179055506000600c60016101000a81548160ff0219169083151502179055506000600c60026101000a81548160ff02191690831515021790555062000265565b80600290805190602001906200014c92919062000150565b5050565b8280546200015e9062000200565b90600052602060002090601f016020900481019282620001825760008555620001ce565b82601f106200019d57805160ff1916838001178555620001ce565b82800160010185558215620001ce579182015b82811115620001cd578251825591602001919060010190620001b0565b5b509050620001dd9190620001e1565b5090565b5b80821115620001fc576000816000905550600101620001e2565b5090565b600060028204905060018216806200021957607f821691505b6020821081141562000230576200022f62000236565b5b50919050565b7f4e487b7100000000000000000000000000000000000000000000000000000000600052602260045260246000fd5b614a6680620002756000396000f3fe60806040526004361061019f5760003560e01c806361b49c21116100ec578063ce0c3e451161008a578063e985e9c511610064578063e985e9c51461063d578063f0eda5571461067a578063f242432a146106a3578063f3f43703146106cc576101a6565b8063ce0c3e45146105a5578063ce606ee0146105e2578063dde964811461060d576101a6565b8063a22cb465116100c6578063a22cb465146104f6578063b262f41f1461051f578063b40ae58f1461053d578063c5b37c221461057a576101a6565b806361b49c211461043a5780636839ea5c14610477578063693685e7146104b4576101a6565b8063338ccd78116101595780634ba69470116101335780634ba69470146103795780634e1273f4146103a45780634f270e9c146103e1578063580eb0dd1461041e576101a6565b8063338ccd78146102f05780633ccfd60b14610320578063410bec6114610337576101a6565b8062fdd58e146101a857806301ffc9a7146101e557806305aa5c62146102225780630e89341c1461025f5780632e4d45cc1461029c5780632eb2c2d6146102c7576101a6565b366101a657005b005b3480156101b457600080fd5b506101cf60048036038101906101ca9190613344565b610709565b6040516101dc919061441a565b60405180910390f35b3480156101f157600080fd5b5061020c600480360381019061020791906133ec565b6107d2565b60405161021991906141d9565b60405180910390f35b34801561022e57600080fd5b50610249600480360381019061024491906134c4565b6108b4565b60405161025691906141f4565b60405180910390f35b34801561026b57600080fd5b50610286600480360381019061028191906134c4565b610954565b60405161029391906141f4565b60405180910390f35b3480156102a857600080fd5b506102b16109e8565b6040516102be91906141d9565b60405180910390f35b3480156102d357600080fd5b506102ee60048036038101906102e991906131ba565b6109fb565b005b61030a60048036038101906103059190613119565b610a9c565b60405161031791906141d9565b60405180910390f35b34801561032c57600080fd5b50610335610b1f565b005b34801561034357600080fd5b5061035e600480360381019061035991906134c4565b610c88565b60405161037096959493929190613ffd565b60405180910390f35b34801561038557600080fd5b5061038e610d9c565b60405161039b919061415e565b60405180910390f35b3480156103b057600080fd5b506103cb60048036038101906103c69190613380565b610f57565b6040516103d89190614180565b60405180910390f35b3480156103ed57600080fd5b506104086004803603810190610403919061343e565b611108565b604051610415919061441a565b60405180910390f35b61043860048036038101906104339190613529565b611138565b005b34801561044657600080fd5b50610461600480360381019061045c9190613142565b611696565b60405161046e91906141d9565b60405180910390f35b34801561048357600080fd5b5061049e60048036038101906104999190613483565b6116f0565b6040516104ab919061441a565b60405180910390f35b3480156104c057600080fd5b506104db60048036038101906104d691906134c4565b61171e565b6040516104ed96959493929190613ffd565b60405180910390f35b34801561050257600080fd5b5061051d60048036038101906105189190613308565b611822565b005b6105276119a3565b60405161053491906141d9565b60405180910390f35b34801561054957600080fd5b50610564600480360381019061055f91906134c4565b6119e4565b60405161057191906141f4565b60405180910390f35b34801561058657600080fd5b5061058f611a8f565b60405161059c919061441a565b60405180910390f35b3480156105b157600080fd5b506105cc60048036038101906105c791906134c4565b611a95565b6040516105d991906143d6565b60405180910390f35b3480156105ee57600080fd5b506105f7611c24565b6040516106049190613fe2565b60405180910390f35b610627600480360381019061062291906134c4565b611c4a565b60405161063491906141d9565b60405180910390f35b34801561064957600080fd5b50610664600480360381019061065f919061317e565b611c61565b60405161067191906141d9565b60405180910390f35b34801561068657600080fd5b506106a1600480360381019061069c91906134ed565b611cf5565b005b3480156106af57600080fd5b506106ca60048036038101906106c59190613279565b611dca565b005b3480156106d857600080fd5b506106f360048036038101906106ee91906130f0565b611e6b565b604051610700919061441a565b60405180910390f35b60008073ffffffffffffffffffffffffffffffffffffffff168373ffffffffffffffffffffffffffffffffffffffff16141561077a576040517f08c379a000000000000000000000000000000000000000000000000000000000815260040161077190614256565b60405180910390fd5b60008083815260200190815260200160002060008473ffffffffffffffffffffffffffffffffffffffff1673ffffffffffffffffffffffffffffffffffffffff16815260200190815260200160002054905092915050565b60007fd9b67a26000000000000000000000000000000000000000000000000000000007bffffffffffffffffffffffffffffffffffffffffffffffffffffffff1916827bffffffffffffffffffffffffffffffffffffffffffffffffffffffff1916148061089d57507f0e89341c000000000000000000000000000000000000000000000000000000007bffffffffffffffffffffffffffffffffffffffffffffffffffffffff1916827bffffffffffffffffffffffffffffffffffffffffffffffffffffffff1916145b806108ad57506108ac82611e83565b5b9050919050565b601860205280600052604060002060009150905080546108d3906147a0565b80601f01602080910402602001604051908101604052809291908181526020018280546108ff906147a0565b801561094c5780601f106109215761010080835404028352916020019161094c565b820191906000526020600020905b81548152906001019060200180831161092f57829003601f168201915b505050505081565b606060028054610963906147a0565b80601f016020809104026020016040519081016040528092919081815260200182805461098f906147a0565b80156109dc5780601f106109b1576101008083540402835291602001916109dc565b820191906000526020600020905b8154815290600101906020018083116109bf57829003601f168201915b50505050509050919050565b600c60009054906101000a900460ff1681565b610a03611eed565b73ffffffffffffffffffffffffffffffffffffffff168573ffffffffffffffffffffffffffffffffffffffff161480610a495750610a4885610a43611eed565b611c61565b5b610a88576040517f08c379a0000000000000000000000000000000000000000000000000000000008152600401610a7f906142d6565b60405180910390fd5b610a958585858585611ef5565b5050505050565b6000808273ffffffffffffffffffffffffffffffffffffffff166108fc349081150290604051600060405180830381858888f19350505050905080610b16576040517f08c379a0000000000000000000000000000000000000000000000000000000008152600401610b0d90614296565b60405180910390fd5b80915050919050565b601360009054906101000a900473ffffffffffffffffffffffffffffffffffffffff1673ffffffffffffffffffffffffffffffffffffffff163373ffffffffffffffffffffffffffffffffffffffff1614610baf576040517f08c379a0000000000000000000000000000000000000000000000000000000008152600401610ba690614376565b60405180910390fd5b60003390506000601560003373ffffffffffffffffffffffffffffffffffffffff1673ffffffffffffffffffffffffffffffffffffffff1681526020019081526020016000205490506000601560003373ffffffffffffffffffffffffffffffffffffffff1673ffffffffffffffffffffffffffffffffffffffff168152602001908152602001600020819055508173ffffffffffffffffffffffffffffffffffffffff166108fc829081150290604051600060405180830381858888f19350505050158015610c83573d6000803e3d6000fd5b505050565b60108181548110610c9857600080fd5b90600052602060002090600602016000915090508060000160009054906101000a900473ffffffffffffffffffffffffffffffffffffffff16908060010160009054906101000a900473ffffffffffffffffffffffffffffffffffffffff1690806002018054610d07906147a0565b80601f0160208091040260200160405190810160405280929190818152602001828054610d33906147a0565b8015610d805780601f10610d5557610100808354040283529160200191610d80565b820191906000526020600020905b815481529060010190602001808311610d6357829003601f168201915b5050505050908060030154908060040154908060050154905086565b60606010805480602002602001604051908101604052809291908181526020016000905b82821015610f4e57838290600052602060002090600602016040518060c00160405290816000820160009054906101000a900473ffffffffffffffffffffffffffffffffffffffff1673ffffffffffffffffffffffffffffffffffffffff1673ffffffffffffffffffffffffffffffffffffffff1681526020016001820160009054906101000a900473ffffffffffffffffffffffffffffffffffffffff1673ffffffffffffffffffffffffffffffffffffffff1673ffffffffffffffffffffffffffffffffffffffff168152602001600282018054610e9f906147a0565b80601f0160208091040260200160405190810160405280929190818152602001828054610ecb906147a0565b8015610f185780601f10610eed57610100808354040283529160200191610f18565b820191906000526020600020905b815481529060010190602001808311610efb57829003601f168201915b50505050508152602001600382015481526020016004820154815260200160058201548152505081526020019060010190610dc0565b50505050905090565b60608151835114610f9d576040517f08c379a0000000000000000000000000000000000000000000000000000000008152600401610f9490614356565b60405180910390fd5b6000835167ffffffffffffffff811115610fe0577f4e487b7100000000000000000000000000000000000000000000000000000000600052604160045260246000fd5b60405190808252806020026020018201604052801561100e5781602001602082028036833780820191505090505b50905060005b84518110156110fd576110a7858281518110611059577f4e487b7100000000000000000000000000000000000000000000000000000000600052603260045260246000fd5b602002602001015185838151811061109a577f4e487b7100000000000000000000000000000000000000000000000000000000600052603260045260246000fd5b6020026020010151610709565b8282815181106110e0577f4e487b7100000000000000000000000000000000000000000000000000000000600052603260045260246000fd5b602002602001018181525050806110f690614806565b9050611014565b508091505092915050565b6000806017848460405161111d929190613fc9565b90815260200160405180910390205490508091505092915050565b611142600e612255565b85600d819055506000611155600e61226b565b90508273ffffffffffffffffffffffffffffffffffffffff168473ffffffffffffffffffffffffffffffffffffffff16146111c5576040517f08c379a00000000000000000000000000000000000000000000000000000000081526004016111bc90614316565b60405180910390fd5b6040518060c001604052808573ffffffffffffffffffffffffffffffffffffffff1681526020018473ffffffffffffffffffffffffffffffffffffffff16815260200187878080601f016020809104026020016040519081016040528093929190818152602001838380828437600081840152601f19601f82011690508083019250505050505050815260200189815260200182815260200183815250600360008201518160000160006101000a81548173ffffffffffffffffffffffffffffffffffffffff021916908373ffffffffffffffffffffffffffffffffffffffff16021790555060208201518160010160006101000a81548173ffffffffffffffffffffffffffffffffffffffff021916908373ffffffffffffffffffffffffffffffffffffffff160217905550604082015181600201908051906020019061130e929190612c14565b50606082015181600301556080820151816004015560a08201518160050155905050611376600360000160009054906101000a900473ffffffffffffffffffffffffffffffffffffffff16600360040154600160405180602001604052806000815250612279565b6114e760036040518060c00160405290816000820160009054906101000a900473ffffffffffffffffffffffffffffffffffffffff1673ffffffffffffffffffffffffffffffffffffffff1673ffffffffffffffffffffffffffffffffffffffff1681526020016001820160009054906101000a900473ffffffffffffffffffffffffffffffffffffffff1673ffffffffffffffffffffffffffffffffffffffff1673ffffffffffffffffffffffffffffffffffffffff168152602001600282018054611442906147a0565b80601f016020809104026020016040519081016040528092919081815260200182805461146e906147a0565b80156114bb5780601f10611490576101008083540402835291602001916114bb565b820191906000526020600020905b81548152906001019060200180831161149e57829003601f168201915b50505050508152602001600382015481526020016004820154815260200160058201548152505061240f565b507f963b49a51945b0f05e14bfafee24a9dcd0f24bf4e05e6c812cb4ba9a662d18ad600360405161151891906143f8565b60405180910390a18060178787604051611533929190613fc9565b9081526020016040518091039020819055508585601860008481526020019081526020016000209190611567929190612c9a565b506003601660008381526020019081526020016000206000820160009054906101000a900473ffffffffffffffffffffffffffffffffffffffff168160000160006101000a81548173ffffffffffffffffffffffffffffffffffffffff021916908373ffffffffffffffffffffffffffffffffffffffff1602179055506001820160009054906101000a900473ffffffffffffffffffffffffffffffffffffffff168160010160006101000a81548173ffffffffffffffffffffffffffffffffffffffff021916908373ffffffffffffffffffffffffffffffffffffffff160217905550600282018160020190805461165f906147a0565b61166a929190612d20565b506003820154816003015560048201548160040155600582015481600501559050505050505050505050565b60008273ffffffffffffffffffffffffffffffffffffffff166108fc839081150290604051600060405180830381858888f193505050501580156116de573d6000803e3d6000fd5b50816011819055506001905092915050565b6017818051602081018201805184825260208301602085012081835280955050505050506000915090505481565b60166020528060005260406000206000915090508060000160009054906101000a900473ffffffffffffffffffffffffffffffffffffffff16908060010160009054906101000a900473ffffffffffffffffffffffffffffffffffffffff169080600201805461178d906147a0565b80601f01602080910402602001604051908101604052809291908181526020018280546117b9906147a0565b80156118065780601f106117db57610100808354040283529160200191611806565b820191906000526020600020905b8154815290600101906020018083116117e957829003601f168201915b5050505050908060030154908060040154908060050154905086565b8173ffffffffffffffffffffffffffffffffffffffff16611841611eed565b73ffffffffffffffffffffffffffffffffffffffff161415611898576040517f08c379a000000000000000000000000000000000000000000000000000000000815260040161188f90614336565b60405180910390fd5b80600160006118a5611eed565b73ffffffffffffffffffffffffffffffffffffffff1673ffffffffffffffffffffffffffffffffffffffff16815260200190815260200160002060008473ffffffffffffffffffffffffffffffffffffffff1673ffffffffffffffffffffffffffffffffffffffff16815260200190815260200160002060006101000a81548160ff0219169083151502179055508173ffffffffffffffffffffffffffffffffffffffff16611952611eed565b73ffffffffffffffffffffffffffffffffffffffff167f17307eab39ab6107e8899845ad3d59bd9653f200f220920489ca2b5937696c318360405161199791906141d9565b60405180910390a35050565b6000600b543410156119b457600080fd5b6001600c60006101000a81548160ff021916908315150217905550600c60009054906101000a900460ff16905090565b60606000601860008481526020019081526020016000208054611a06906147a0565b80601f0160208091040260200160405190810160405280929190818152602001828054611a32906147a0565b8015611a7f5780601f10611a5457610100808354040283529160200191611a7f565b820191906000526020600020905b815481529060010190602001808311611a6257829003601f168201915b5050505050905080915050919050565b600b5481565b611a9d612dad565b6000601660008481526020019081526020016000206040518060c00160405290816000820160009054906101000a900473ffffffffffffffffffffffffffffffffffffffff1673ffffffffffffffffffffffffffffffffffffffff1673ffffffffffffffffffffffffffffffffffffffff1681526020016001820160009054906101000a900473ffffffffffffffffffffffffffffffffffffffff1673ffffffffffffffffffffffffffffffffffffffff1673ffffffffffffffffffffffffffffffffffffffff168152602001600282018054611b79906147a0565b80601f0160208091040260200160405190810160405280929190818152602001828054611ba5906147a0565b8015611bf25780601f10611bc757610100808354040283529160200191611bf2565b820191906000526020600020905b815481529060010190602001808311611bd557829003601f168201915b505050505081526020016003820154815260200160048201548152602001600582015481525050905080915050919050565b601360009054906101000a900473ffffffffffffffffffffffffffffffffffffffff1681565b6000813414611c5857600080fd5b60019050919050565b6000600160008473ffffffffffffffffffffffffffffffffffffffff1673ffffffffffffffffffffffffffffffffffffffff16815260200190815260200160002060008373ffffffffffffffffffffffffffffffffffffffff1673ffffffffffffffffffffffffffffffffffffffff16815260200190815260200160002060009054906101000a900460ff16905092915050565b6000611d0083611a95565b9050611d2381600001518385600160405180602001604052806000815250611dca565b7fe40f988944d25650c3073142122c36228509a2a1994b970b0c4b3269d505a2a1826016600086815260200190815260200160002060010160009054906101000a900473ffffffffffffffffffffffffffffffffffffffff166016600087815260200190815260200160002060030154604051611da293929190614065565b60405180910390a16000600c60026101000a81548160ff021916908315150217905550505050565b611dd2611eed565b73ffffffffffffffffffffffffffffffffffffffff168573ffffffffffffffffffffffffffffffffffffffff161480611e185750611e1785611e12611eed565b611c61565b5b611e57576040517f08c379a0000000000000000000000000000000000000000000000000000000008152600401611e4e90614276565b60405180910390fd5b611e648585858585612511565b5050505050565b60156020528060005260406000206000915090505481565b60007f01ffc9a7000000000000000000000000000000000000000000000000000000007bffffffffffffffffffffffffffffffffffffffffffffffffffffffff1916827bffffffffffffffffffffffffffffffffffffffffffffffffffffffff1916149050919050565b600033905090565b8151835114611f39576040517f08c379a0000000000000000000000000000000000000000000000000000000008152600401611f3090614396565b60405180910390fd5b600073ffffffffffffffffffffffffffffffffffffffff168473ffffffffffffffffffffffffffffffffffffffff161415611fa9576040517f08c379a0000000000000000000000000000000000000000000000000000000008152600401611fa0906142b6565b60405180910390fd5b6000611fb3611eed565b9050611fc3818787878787612793565b60005b84518110156121c057600085828151811061200a577f4e487b7100000000000000000000000000000000000000000000000000000000600052603260045260246000fd5b60200260200101519050600085838151811061204f577f4e487b7100000000000000000000000000000000000000000000000000000000600052603260045260246000fd5b60200260200101519050600080600084815260200190815260200160002060008b73ffffffffffffffffffffffffffffffffffffffff1673ffffffffffffffffffffffffffffffffffffffff168152602001908152602001600020549050818110156120f0576040517f08c379a00000000000000000000000000000000000000000000000000000000081526004016120e7906142f6565b60405180910390fd5b81810360008085815260200190815260200160002060008c73ffffffffffffffffffffffffffffffffffffffff1673ffffffffffffffffffffffffffffffffffffffff168152602001908152602001600020819055508160008085815260200190815260200160002060008b73ffffffffffffffffffffffffffffffffffffffff1673ffffffffffffffffffffffffffffffffffffffff16815260200190815260200160002060008282546121a59190614622565b92505081905550505050806121b990614806565b9050611fc6565b508473ffffffffffffffffffffffffffffffffffffffff168673ffffffffffffffffffffffffffffffffffffffff168273ffffffffffffffffffffffffffffffffffffffff167f4a39dc06d4c0dbc64b70af90fd698a233a518aa5d07e595d983b8c0526c8f7fb87876040516122379291906141a2565b60405180910390a461224d81878787878761279b565b505050505050565b6001816000016000828254019250508190555050565b600081600001549050919050565b600073ffffffffffffffffffffffffffffffffffffffff168473ffffffffffffffffffffffffffffffffffffffff1614156122e9576040517f08c379a00000000000000000000000000000000000000000000000000000000081526004016122e0906143b6565b60405180910390fd5b60006122f3611eed565b9050612314816000876123058861296b565b61230e8861296b565b87612793565b8260008086815260200190815260200160002060008773ffffffffffffffffffffffffffffffffffffffff1673ffffffffffffffffffffffffffffffffffffffff16815260200190815260200160002060008282546123739190614622565b925050819055508473ffffffffffffffffffffffffffffffffffffffff16600073ffffffffffffffffffffffffffffffffffffffff168273ffffffffffffffffffffffffffffffffffffffff167fc3d58168c5ae7397731d063d5bbf3d657854427343f4c083240f7aacaa2d0f6287876040516123f1929190614435565b60405180910390a461240881600087878787612a31565b5050505050565b6000601082908060018154018082558091505060019003906000526020600020906006020160009091909190915060008201518160000160006101000a81548173ffffffffffffffffffffffffffffffffffffffff021916908373ffffffffffffffffffffffffffffffffffffffff16021790555060208201518160010160006101000a81548173ffffffffffffffffffffffffffffffffffffffff021916908373ffffffffffffffffffffffffffffffffffffffff16021790555060408201518160020190805190602001906124e7929190612c14565b50606082015181600301556080820151816004015560a08201518160050155505060019050919050565b600073ffffffffffffffffffffffffffffffffffffffff168473ffffffffffffffffffffffffffffffffffffffff161415612581576040517f08c379a0000000000000000000000000000000000000000000000000000000008152600401612578906142b6565b60405180910390fd5b600061258b611eed565b90506125ab81878761259c8861296b565b6125a58861296b565b87612793565b600080600086815260200190815260200160002060008873ffffffffffffffffffffffffffffffffffffffff1673ffffffffffffffffffffffffffffffffffffffff16815260200190815260200160002054905083811015612642576040517f08c379a0000000000000000000000000000000000000000000000000000000008152600401612639906142f6565b60405180910390fd5b83810360008087815260200190815260200160002060008973ffffffffffffffffffffffffffffffffffffffff1673ffffffffffffffffffffffffffffffffffffffff168152602001908152602001600020819055508360008087815260200190815260200160002060008873ffffffffffffffffffffffffffffffffffffffff1673ffffffffffffffffffffffffffffffffffffffff16815260200190815260200160002060008282546126f79190614622565b925050819055508573ffffffffffffffffffffffffffffffffffffffff168773ffffffffffffffffffffffffffffffffffffffff168373ffffffffffffffffffffffffffffffffffffffff167fc3d58168c5ae7397731d063d5bbf3d657854427343f4c083240f7aacaa2d0f628888604051612774929190614435565b60405180910390a461278a828888888888612a31565b50505050505050565b505050505050565b6127ba8473ffffffffffffffffffffffffffffffffffffffff16612c01565b15612963578373ffffffffffffffffffffffffffffffffffffffff1663bc197c8187878686866040518663ffffffff1660e01b815260040161280095949392919061409c565b602060405180830381600087803b15801561281a57600080fd5b505af192505050801561284b57506040513d601f19601f820116820180604052508101906128489190613415565b60015b6128da57612857614907565b80612862575061289f565b806040517f08c379a000000000000000000000000000000000000000000000000000000000815260040161289691906141f4565b60405180910390fd5b6040517f08c379a00000000000000000000000000000000000000000000000000000000081526004016128d190614216565b60405180910390fd5b63bc197c8160e01b7bffffffffffffffffffffffffffffffffffffffffffffffffffffffff1916817bffffffffffffffffffffffffffffffffffffffffffffffffffffffff191614612961576040517f08c379a000000000000000000000000000000000000000000000000000000000815260040161295890614236565b60405180910390fd5b505b505050505050565b60606000600167ffffffffffffffff8111156129b0577f4e487b7100000000000000000000000000000000000000000000000000000000600052604160045260246000fd5b6040519080825280602002602001820160405280156129de5781602001602082028036833780820191505090505b5090508281600081518110612a1c577f4e487b7100000000000000000000000000000000000000000000000000000000600052603260045260246000fd5b60200260200101818152505080915050919050565b612a508473ffffffffffffffffffffffffffffffffffffffff16612c01565b15612bf9578373ffffffffffffffffffffffffffffffffffffffff1663f23a6e6187878686866040518663ffffffff1660e01b8152600401612a96959493929190614104565b602060405180830381600087803b158015612ab057600080fd5b505af1925050508015612ae157506040513d601f19601f82011682018060405250810190612ade9190613415565b60015b612b7057612aed614907565b80612af85750612b35565b806040517f08c379a0000000000000000000000000000000000000000000000000000000008152600401612b2c91906141f4565b60405180910390fd5b6040517f08c379a0000000000000000000000000000000000000000000000000000000008152600401612b6790614216565b60405180910390fd5b63f23a6e6160e01b7bffffffffffffffffffffffffffffffffffffffffffffffffffffffff1916817bffffffffffffffffffffffffffffffffffffffffffffffffffffffff191614612bf7576040517f08c379a0000000000000000000000000000000000000000000000000000000008152600401612bee90614236565b60405180910390fd5b505b505050505050565b600080823b905060008111915050919050565b828054612c20906147a0565b90600052602060002090601f016020900481019282612c425760008555612c89565b82601f10612c5b57805160ff1916838001178555612c89565b82800160010185558215612c89579182015b82811115612c88578251825591602001919060010190612c6d565b5b509050612c969190612e0f565b5090565b828054612ca6906147a0565b90600052602060002090601f016020900481019282612cc85760008555612d0f565b82601f10612ce157803560ff1916838001178555612d0f565b82800160010185558215612d0f579182015b82811115612d0e578235825591602001919060010190612cf3565b5b509050612d1c9190612e0f565b5090565b828054612d2c906147a0565b90600052602060002090601f016020900481019282612d4e5760008555612d9c565b82601f10612d5f5780548555612d9c565b82800160010185558215612d9c57600052602060002091601f016020900482015b82811115612d9b578254825591600101919060010190612d80565b5b509050612da99190612e0f565b5090565b6040518060c00160405280600073ffffffffffffffffffffffffffffffffffffffff168152602001600073ffffffffffffffffffffffffffffffffffffffff168152602001606081526020016000815260200160008152602001600081525090565b5b80821115612e28576000816000905550600101612e10565b5090565b6000612e3f612e3a8461448f565b61445e565b90508083825260208201905082856020860282011115612e5e57600080fd5b60005b85811015612e8e5781612e748882612f80565b845260208401935060208301925050600181019050612e61565b5050509392505050565b6000612eab612ea6846144bb565b61445e565b90508083825260208201905082856020860282011115612eca57600080fd5b60005b85811015612efa5781612ee088826130db565b845260208401935060208301925050600181019050612ecd565b5050509392505050565b6000612f17612f12846144e7565b61445e565b905082815260208101848484011115612f2f57600080fd5b612f3a84828561475e565b509392505050565b6000612f55612f5084614517565b61445e565b905082815260208101848484011115612f6d57600080fd5b612f7884828561475e565b509392505050565b600081359050612f8f816149bd565b92915050565b600081359050612fa4816149d4565b92915050565b600082601f830112612fbb57600080fd5b8135612fcb848260208601612e2c565b91505092915050565b600082601f830112612fe557600080fd5b8135612ff5848260208601612e98565b91505092915050565b60008135905061300d816149eb565b92915050565b60008135905061302281614a02565b92915050565b60008151905061303781614a02565b92915050565b600082601f83011261304e57600080fd5b813561305e848260208601612f04565b91505092915050565b60008083601f84011261307957600080fd5b8235905067ffffffffffffffff81111561309257600080fd5b6020830191508360018202830111156130aa57600080fd5b9250929050565b600082601f8301126130c257600080fd5b81356130d2848260208601612f42565b91505092915050565b6000813590506130ea81614a19565b92915050565b60006020828403121561310257600080fd5b600061311084828501612f80565b91505092915050565b60006020828403121561312b57600080fd5b600061313984828501612f95565b91505092915050565b6000806040838503121561315557600080fd5b600061316385828601612f95565b9250506020613174858286016130db565b9150509250929050565b6000806040838503121561319157600080fd5b600061319f85828601612f80565b92505060206131b085828601612f80565b9150509250929050565b600080600080600060a086880312156131d257600080fd5b60006131e088828901612f80565b95505060206131f188828901612f80565b945050604086013567ffffffffffffffff81111561320e57600080fd5b61321a88828901612fd4565b935050606086013567ffffffffffffffff81111561323757600080fd5b61324388828901612fd4565b925050608086013567ffffffffffffffff81111561326057600080fd5b61326c8882890161303d565b9150509295509295909350565b600080600080600060a0868803121561329157600080fd5b600061329f88828901612f80565b95505060206132b088828901612f80565b94505060406132c1888289016130db565b93505060606132d2888289016130db565b925050608086013567ffffffffffffffff8111156132ef57600080fd5b6132fb8882890161303d565b9150509295509295909350565b6000806040838503121561331b57600080fd5b600061332985828601612f80565b925050602061333a85828601612ffe565b9150509250929050565b6000806040838503121561335757600080fd5b600061336585828601612f80565b9250506020613376858286016130db565b9150509250929050565b6000806040838503121561339357600080fd5b600083013567ffffffffffffffff8111156133ad57600080fd5b6133b985828601612faa565b925050602083013567ffffffffffffffff8111156133d657600080fd5b6133e285828601612fd4565b9150509250929050565b6000602082840312156133fe57600080fd5b600061340c84828501613013565b91505092915050565b60006020828403121561342757600080fd5b600061343584828501613028565b91505092915050565b6000806020838503121561345157600080fd5b600083013567ffffffffffffffff81111561346b57600080fd5b61347785828601613067565b92509250509250929050565b60006020828403121561349557600080fd5b600082013567ffffffffffffffff8111156134af57600080fd5b6134bb848285016130b1565b91505092915050565b6000602082840312156134d657600080fd5b60006134e4848285016130db565b91505092915050565b6000806040838503121561350057600080fd5b600061350e858286016130db565b925050602061351f85828601612f80565b9150509250929050565b600080600080600080600060c0888a03121561354457600080fd5b60006135528a828b016130db565b97505060206135638a828b016130db565b965050604088013567ffffffffffffffff81111561358057600080fd5b61358c8a828b01613067565b9550955050606061359f8a828b01612f95565b93505060806135b08a828b01612f95565b92505060a06135c18a828b016130db565b91505092959891949750929550565b60006135dc8383613dd8565b905092915050565b60006135f08383613fab565b60208301905092915050565b61360581614728565b82525050565b613614816146b4565b82525050565b613623816146b4565b82525050565b613632816146a2565b82525050565b60006136438261457c565b61364d81856145c2565b93508360208202850161365f85614547565b8060005b8581101561369b578484038952815161367c85826135d0565b9450613687836145a8565b925060208a01995050600181019050613663565b50829750879550505050505092915050565b60006136b882614587565b6136c281856145d3565b93506136cd83614557565b8060005b838110156136fe5781516136e588826135e4565b97506136f0836145b5565b9250506001810190506136d1565b5085935050505092915050565b613714816146c6565b82525050565b600061372582614592565b61372f81856145e4565b935061373f81856020860161476d565b613748816148dc565b840191505092915050565b600061375f8385614617565b935061376c83858461475e565b82840190509392505050565b60006137838261459d565b61378d81856145f5565b935061379d81856020860161476d565b6137a6816148dc565b840191505092915050565b60006137bc8261459d565b6137c68185614606565b93506137d681856020860161476d565b6137df816148dc565b840191505092915050565b600081546137f7816147a0565b61380181866145f5565b9450600182166000811461381c576001811461382e57613861565b60ff1983168652602086019350613861565b61383785614567565b60005b838110156138595781548189015260018201915060208101905061383a565b808801955050505b50505092915050565b6000613877603483614606565b91507f455243313135353a207472616e7366657220746f206e6f6e204552433131353560008301527f526563656976657220696d706c656d656e7465720000000000000000000000006020830152604082019050919050565b60006138dd602883614606565b91507f455243313135353a204552433131353552656365697665722072656a6563746560008301527f6420746f6b656e730000000000000000000000000000000000000000000000006020830152604082019050919050565b6000613943602b83614606565b91507f455243313135353a2062616c616e636520717565727920666f7220746865207a60008301527f65726f20616464726573730000000000000000000000000000000000000000006020830152604082019050919050565b60006139a9602983614606565b91507f455243313135353a2063616c6c6572206973206e6f74206f776e6572206e6f7260008301527f20617070726f76656400000000000000000000000000000000000000000000006020830152604082019050919050565b6000613a0f601483614606565b91507f4661696c656420746f2073656e642045746865720000000000000000000000006000830152602082019050919050565b6000613a4f602583614606565b91507f455243313135353a207472616e7366657220746f20746865207a65726f20616460008301527f64726573730000000000000000000000000000000000000000000000000000006020830152604082019050919050565b6000613ab5603283614606565b91507f455243313135353a207472616e736665722063616c6c6572206973206e6f742060008301527f6f776e6572206e6f7220617070726f76656400000000000000000000000000006020830152604082019050919050565b6000613b1b602a83614606565b91507f455243313135353a20696e73756666696369656e742062616c616e636520666f60008301527f72207472616e73666572000000000000000000000000000000000000000000006020830152604082019050919050565b6000613b81602983614606565b91507f5772697465722061646472657373206e6f742073616d65206173206f776e657260008301527f20616464726573732e00000000000000000000000000000000000000000000006020830152604082019050919050565b6000613be7602983614606565b91507f455243313135353a2073657474696e6720617070726f76616c2073746174757360008301527f20666f722073656c6600000000000000000000000000000000000000000000006020830152604082019050919050565b6000613c4d602983614606565b91507f455243313135353a206163636f756e747320616e6420696473206c656e67746860008301527f206d69736d6174636800000000000000000000000000000000000000000000006020830152604082019050919050565b6000613cb3602783614606565b91507f596f7520617265206e6f7420616c6c6f77656420666f722074686973206f706560008301527f726174696f6e2e000000000000000000000000000000000000000000000000006020830152604082019050919050565b6000613d19602883614606565b91507f455243313135353a2069647320616e6420616d6f756e7473206c656e6774682060008301527f6d69736d617463680000000000000000000000000000000000000000000000006020830152604082019050919050565b6000613d7f602183614606565b91507f455243313135353a206d696e7420746f20746865207a65726f2061646472657360008301527f73000000000000000000000000000000000000000000000000000000000000006020830152604082019050919050565b600060c083016000830151613df0600086018261360b565b506020830151613e03602086018261360b565b5060408301518482036040860152613e1b8282613778565b9150506060830151613e306060860182613fab565b506080830151613e436080860182613fab565b5060a0830151613e5660a0860182613fab565b508091505092915050565b600060c083016000830151613e79600086018261360b565b506020830151613e8c602086018261360b565b5060408301518482036040860152613ea48282613778565b9150506060830151613eb96060860182613fab565b506080830151613ecc6080860182613fab565b5060a0830151613edf60a0860182613fab565b508091505092915050565b600060c083016000808401549050613f01816147d2565b613f0e600087018261360b565b5060018401549050613f1f816147d2565b613f2c602087018261360b565b50600284018583036040870152613f4383826137ea565b92505060038401549050613f56816147ec565b613f636060870182613fab565b5060048401549050613f74816147ec565b613f816080870182613fab565b5060058401549050613f92816147ec565b613f9f60a0870182613fab565b50819250505092915050565b613fb48161471e565b82525050565b613fc38161471e565b82525050565b6000613fd6828486613753565b91508190509392505050565b6000602082019050613ff76000830184613629565b92915050565b600060c082019050614012600083018961361a565b61401f602083018861361a565b818103604083015261403181876137b1565b90506140406060830186613fba565b61404d6080830185613fba565b61405a60a0830184613fba565b979650505050505050565b600060608201905061407a6000830186613629565b61408760208301856135fc565b6140946040830184613fba565b949350505050565b600060a0820190506140b16000830188613629565b6140be6020830187613629565b81810360408301526140d081866136ad565b905081810360608301526140e481856136ad565b905081810360808301526140f8818461371a565b90509695505050505050565b600060a0820190506141196000830188613629565b6141266020830187613629565b6141336040830186613fba565b6141406060830185613fba565b8181036080830152614152818461371a565b90509695505050505050565b600060208201905081810360008301526141788184613638565b905092915050565b6000602082019050818103600083015261419a81846136ad565b905092915050565b600060408201905081810360008301526141bc81856136ad565b905081810360208301526141d081846136ad565b90509392505050565b60006020820190506141ee600083018461370b565b92915050565b6000602082019050818103600083015261420e81846137b1565b905092915050565b6000602082019050818103600083015261422f8161386a565b9050919050565b6000602082019050818103600083015261424f816138d0565b9050919050565b6000602082019050818103600083015261426f81613936565b9050919050565b6000602082019050818103600083015261428f8161399c565b9050919050565b600060208201905081810360008301526142af81613a02565b9050919050565b600060208201905081810360008301526142cf81613a42565b9050919050565b600060208201905081810360008301526142ef81613aa8565b9050919050565b6000602082019050818103600083015261430f81613b0e565b9050919050565b6000602082019050818103600083015261432f81613b74565b9050919050565b6000602082019050818103600083015261434f81613bda565b9050919050565b6000602082019050818103600083015261436f81613c40565b9050919050565b6000602082019050818103600083015261438f81613ca6565b9050919050565b600060208201905081810360008301526143af81613d0c565b9050919050565b600060208201905081810360008301526143cf81613d72565b9050919050565b600060208201905081810360008301526143f08184613e61565b905092915050565b600060208201905081810360008301526144128184613eea565b905092915050565b600060208201905061442f6000830184613fba565b92915050565b600060408201905061444a6000830185613fba565b6144576020830184613fba565b9392505050565b6000604051905081810181811067ffffffffffffffff82111715614485576144846148ad565b5b8060405250919050565b600067ffffffffffffffff8211156144aa576144a96148ad565b5b602082029050602081019050919050565b600067ffffffffffffffff8211156144d6576144d56148ad565b5b602082029050602081019050919050565b600067ffffffffffffffff821115614502576145016148ad565b5b601f19601f8301169050602081019050919050565b600067ffffffffffffffff821115614532576145316148ad565b5b601f19601f8301169050602081019050919050565b6000819050602082019050919050565b6000819050602082019050919050565b60008190508160005260206000209050919050565b600081519050919050565b600081519050919050565b600081519050919050565b600081519050919050565b6000602082019050919050565b6000602082019050919050565b600082825260208201905092915050565b600082825260208201905092915050565b600082825260208201905092915050565b600082825260208201905092915050565b600082825260208201905092915050565b600081905092915050565b600061462d8261471e565b91506146388361471e565b9250827fffffffffffffffffffffffffffffffffffffffffffffffffffffffffffffffff0382111561466d5761466c61484f565b5b828201905092915050565b600073ffffffffffffffffffffffffffffffffffffffff82169050919050565b6000819050919050565b60006146ad826146fe565b9050919050565b60006146bf826146fe565b9050919050565b60008115159050919050565b60007fffffffff0000000000000000000000000000000000000000000000000000000082169050919050565b600073ffffffffffffffffffffffffffffffffffffffff82169050919050565b6000819050919050565b60006147338261473a565b9050919050565b60006147458261474c565b9050919050565b6000614757826146fe565b9050919050565b82818337600083830152505050565b60005b8381101561478b578082015181840152602081019050614770565b8381111561479a576000848401525b50505050565b600060028204905060018216806147b857607f821691505b602082108114156147cc576147cb61487e565b5b50919050565b60006147e56147e0836148ed565b614678565b9050919050565b60006147ff6147fa836148ed565b614698565b9050919050565b60006148118261471e565b91507fffffffffffffffffffffffffffffffffffffffffffffffffffffffffffffffff8214156148445761484361484f565b5b600182019050919050565b7f4e487b7100000000000000000000000000000000000000000000000000000000600052601160045260246000fd5b7f4e487b7100000000000000000000000000000000000000000000000000000000600052602260045260246000fd5b7f4e487b7100000000000000000000000000000000000000000000000000000000600052604160045260246000fd5b6000601f19601f8301169050919050565b60008160001c9050919050565b60008160e01c9050919050565b600060443d1015614917576149ba565b60046000803e6149286000516148fa565b6308c379a0811461493957506149ba565b60405160043d036004823e80513d602482011167ffffffffffffffff82111715614965575050506149ba565b808201805167ffffffffffffffff8111156149845750505050506149ba565b8060208301013d850181111561499f575050505050506149ba565b6149a8826148dc565b60208401016040528296505050505050505b90565b6149c6816146a2565b81146149d157600080fd5b50565b6149dd816146b4565b81146149e857600080fd5b50565b6149f4816146c6565b81146149ff57600080fd5b50565b614a0b816146d2565b8114614a1657600080fd5b50565b614a228161471e565b8114614a2d57600080fd5b5056fea264697066735822122046c43cdf3ef187eb223dfcc8e1411762fb878484a53abc29ece90d3e4472aa3464736f6c634300080000332f686f6d652f6d657261662f50726f6a656374732f536d6172745f436f6e7472616374732f57726974657273426c6f636b2f7365727665722f736372697074732e6a736f6e",
  "linkReferences": {},
  "deployedLinkReferences": {}
}